:100000000C9420010C9441010C9441010C94410189
:100010000C9441010C9441010C9441010C94410158
:100020000C9441010C9441010C9441010C94410148
:100030000C9441010C9441010C9441010C94410138
:100040000C9441010C9441010C9441010C94410128
:100050000C9441010C9441010C9441010C94410118
:100060000C9441010C9441010C9441010C94410108
:100070000C9441010C9441010C9441010C944101F8
:100080000C9441010C9441010C9441010C944101E8
:100090000C9441010C9441010C9441010C944101D8
:1000A0000C9441010C9441010C9441010C94010BFE
:1000B0000C9441010C9441010C9441010C944101B8
:1000C0000C9441010C9441010C9441010C944101A8
:1000D0000C9441010C9441010C9441010C94410198
:1000E0000C9441010C9441010C9441010C94410188
:1000F0000C9441010C9441010C9441010C94410178
:100100000C9441010C9441010C9441010C94410167
:100110000C9441010C9441010C9441010C94410157
:100120000C9441010C9441010C9441010C94410147
:100130000C9441010C9441010C9441010C94F70280
:100140000C9441010C9441010C9441010C94410127
:100150000C9441010C9417030C9441010C9441013F
:100160000C9441010C9441010C9441010C94410107
:100170000C9441010C9441010C9441010C944101F7
:100180000C9441010C9441010C9441010C944101E7
:100190000C9441010C9441010C9441010C944101D7
:1001A0000C9441010C9441010C9441010C944101C7
:1001B0000C9441010C9441010C9441010C944101B7
:1001C0000C9441010C9441010C9441010C944101A7
:1001D0000C9441010C9441010C9441010C94410197
:1001E0000C9441010C9441010C9441010C94410187
:1001F0000C9441010C9441010C9441013E0B460BBF
:100200004D0B460B4D0B4D0B3E0B3E0B4D0B4D0B53
:10021000460B4D0B460B3E0B0C9453050C94460BB2
:100220000C94BC050C949F050C944D0B0C94A905E3
:100230000C9474050C9495050C943E0B0C94AE052F
:1002400011241FBECFEFCDBFDFE5DEBF00E00CBF46
:1002500013E2A0E0B0E2E0E6F9E100E00BBF02C08B
:1002600007900D92A837B107D9F726E2A8E7B3E2C5
:1002700001C01D92A43AB207E1F70E94D5050C9483
:10028000AE0C0C940000FC01628373830895873EDA
:1002900023E0920710F086EE93E00895CF92DF926C
:1002A000EF92FF92CF93DF93EC01A881B98190E0A8
:1002B00031C0492F50E0FA013196EE0FFF1FEE0FCB
:1002C000FF1FEA0FFB1FC280D380C616D70608F1B6
:1002D000440F551F440F551FA40FB51F12968D9143
:1002E0009C911397C81AD90AE12CF12C20813181F5
:1002F000CD91DC912C1B3D0BDB01A81BB90B0E949F
:100300006A0CA70196010E94430CCE01820F931F35
:1003100016C09F5F492F50E08A81282F30E021507E
:100320003109421753072CF290E08150904C880F0E
:10033000991F880F991FA80FB91F8D919C91DF916C
:10034000CF91FF90EF90DF90CF900895DC0112964F
:100350002D913C9113975996ED91FC915A97838179
:1003600094812817390710F080E0089581E00895FE
:10037000EF92FF921F93CF93DF93EC01ED8DFE8DF3
:1003800019957C018C839D83CE010E94A601182FB4
:1003900089811817E1F0113019F48B8D9C8D02C002
:1003A000898D9A8D6A817B810E944E010E9447014E
:1003B0008A879B87EF8DF8A119951E821F82188668
:1003C00019861983EBA1FCA1812F199540C08130BA
:1003D00019F48B8D9C8D02C0898D9A8D6A817B81E9
:1003E000E616F70620F49B012E193F0903C097017A
:1003F000261B370B253F41E0340750F00E944E0189
:100400000E9447018A879B87EF8DF8A119951FC02D
:10041000E616F70638F48A859B8536952795820F70
:10042000931F06C08A859B8536952795821B930B63
:100430000E9447018A879B87EF8DF8A119958881D3
:10044000813029F4E9A1FAA18CED90E01995DF91B2
:10045000CF911F91FF90EF9008952091A10825FF63
:10046000FCCF9093A0089091A10895FFFCCF8093BA
:10047000A0088091A10886FFFCCFE0EAF8E0818126
:100480008064818380E090E00895873E23E09207B6
:1004900010F086EE93E00895CF93C82FCB010E9411
:1004A0004502937094602C2F30E0F901EE0FFF1F8E
:1004B000E758FC4D408151818417950751F0220F78
:1004C000331FF901E758FC4D8083918381E08093CD
:1004D0007823CF910895CF9381E080937823809300
:1004E0004606C0E00BC0EC2FF0E0EE0FFF1FE75810
:1004F000FC4D808191810E942D02CF5FC53098F321
:1005000081E08093450610927823CF910895A0E46E
:10051000B6E098E011969C93119722E011962C93E7
:10052000119781E011968C93119784E012968C9329
:100530001297E0E7F0E083818F7E8383E0EAF8E0C2
:1005400084818860848384818061848382EC858354
:1005500085818B7F858316962C93169715969C9391
:1005600080E00BC0E82FF0E0EE0FFF1FE758FC4DD6
:1005700022E038E1208331838F5F853098F381E07A
:10058000809378230E946B02089581E08093820615
:1005900080939006A0E8B1E090E79C9318961C9297
:1005A0001897E0E0F9E023E0208390E1918338EAB6
:1005B000338310A211A2878330E830930206809320
:1005C000170637E511963C93119719961C92E0E4B3
:1005D000F9E02083918399EA938310A211A2878383
:1005E000E0EAF0E0828181608283789408951F922E
:1005F0000F920FB60F9211248F939F93AF93BF93D7
:100600008091280990912909A0E0B0E08093AC2561
:100610009093AD25A093AE25B093AF25BF91AF9138
:100620009F918F910F900FBE0F901F9018951F9262
:100630000F920FB60F9211248F939F93AF93BF9396
:100640008091680990916909A0E0B0E08093B0259D
:100650009093B125A093B225B093B325BF91AF91EC
:100660009F918F910F900FBE0F901F901895CF9371
:10067000DF93DC0190E001C09F5FFB01E90FF11DFA
:1006800080818111F9CF941710F4491B01C040E01B
:1006900030E00AC0E32FF0E0ED01CE0FDF1FE60FE0
:1006A000F71F808188833F5F3917A0F330E008C0CF
:1006B000E32FF0E0E90FF11DEA0FFB1F20833F5FFE
:1006C0003417B0F350E09A01290F311DA20FB31F68
:1006D0001C92DF91CF910895E0E0F6E088E08683F8
:1006E000AAE2BAE01197F1F7000085838AE29AE066
:1006F0000197F1F70000089598E09093A606909175
:10070000A10995FFFCCF8093A0098091A10986FFE4
:10071000FCCFE0EAF9E081818064818388E0809306
:10072000A50608951F93CF93DF93C0E6D6E011E0AE
:100730001D830E947C031E83DF91CF911F9108953A
:10074000893018F4806B0E947C030895CF9388232E
:1007500054F0C82F82958F7080610E947C038C2F8B
:100760008F700E947C03CF91089590E00FC020E825
:10077000929FF0011124E957FC4DE80FF11D108202
:100780008F5F01C080E0882394F79F5F9430D0F39F
:1007900080E007C0E82FF0E0ED57FC4D91E090833A
:1007A0008F5F8430B8F3089566230CF44FC0843013
:1007B00008F04CC090E070E0FC01F695FE2FEE27AB
:1007C000F795E795E957FC4DE60FF71F508121306B
:1007D00091F018F02230D9F026C0FC01F695FE2FDA
:1007E000EE27F795E795E957FC4DE60FF71F409583
:1007F0004523408318C0FC01F695FE2FEE27F795A0
:10080000E795E957FC4DE60FF71F40830CC0FC014C
:10081000F695FE2FEE27F795E795E957FC4DE60F85
:10082000F71F452740839C013695322F22273795A5
:10083000279529573C4DF901E60FF71F20815217E4
:1008400029F0FC01ED57FC4D21E0208308950F9322
:100850001F93CF93DF93262F30E02B5F3F4F20383D
:100860003105F4F4042FD62F182FC0E017C0202F25
:1008700030E020523109F901EE0FFF1FEE0FFF1F8C
:10088000E20FF31FE054FF4DEC0FF11D6C2F6D0FC5
:1008900021E04081812F0E94D403CF5FC53038F31F
:1008A000DF91CF911F910F9108950F931F93CF93D5
:1008B000DF93082F162FEA0106C0612F802F0E94B8
:1008C000270421961A5F48814111F7CFDF91CF911C
:1008D0001F910F9108959F92AF92BF92CF92DF9296
:1008E000EF92FF920F931F93CF93DF93CDB7DEB7B5
:1008F000C82E962ECA01ADB6BEB6422F50E0FA0100
:10090000E155FF4DD0800D2D10E02DB73EB7201BD7
:10091000310B2DBF3EBF2F5F3F4F7901B9010E94C0
:10092000790C8DB79EB7801B910B8DBF9EBF0DB705
:100930001EB70F5F1F4F20E24D2DB701C8010E9467
:100940003703A801692D8C2D0E945504ADBEBEBE93
:10095000DF91CF911F910F91FF90EF90DF90CF909B
:10096000BF90AF909F9008950F931F93CF93DF9305
:10097000D0E025C00D2F10E0F801ED57FC4D80812F
:100980008823E1F08D2F0E94A00380E00E94A6033F
:10099000C0E00EC0F801F695FE2FEE27F795E7951B
:1009A000E957FC4DEC0FF11D80810E949203CF5F4F
:1009B000CC2384F7F801ED57FC4D1082DF5FD43073
:1009C000C8F2DF91CF911F910F9108950E94B50356
:1009D0000E94B4040895CF92DF92EF92FF920F939A
:1009E0001F93CF93DF93C0E6D6E018E01983689495
:1009F000CC24C1F8C982DD24D394D9821093A106F6
:100A00000F2EF0E8EF2EF6E0FF2EF02D00E1F701BB
:100A10000183109301060E946C03E0E7F0E08481FB
:100A20008F7E8483E0EAF9E0148384818F7E84835F
:100A300082EC858385818B7F8583CD82DE8282EE09
:100A40000E947C0380EA0E947C0386EA0E947C0369
:100A500088EC0E947C0382EA0E947C038FE20E9461
:100A60007C0388EF0E947C0380E00E947C0381E28B
:100A70000E947C0381E80E947C038EE10E947C033B
:100A800084EA0E947C030E94E6048FEA0E947C03B1
:100A9000F7010583DF91CF911F910F91FF90EF90A8
:100AA000DF90CF9008958091AC259091AD25A091D5
:100AB000AE25B091AF250097A105B10591F09C013D
:100AC000AD01220F331F441F551F220F331F441F38
:100AD000551F60ED74EC8FE190E00E94210CC9017C
:100AE000089580E090E008958091B0259091B1251F
:100AF000A091B225B091B3250097A105B10591F061
:100B00009C01AD01220F331F441F551F220F331FBD
:100B1000441F551F60ED74EC8FE190E00E94210CA2
:100B2000C901089580E090E00895882321F080E1D4
:100B300080930506089580E1809306060895882332
:100B400021F084E080932506089584E080932606B2
:100B50000895BC0181E00E944C020895CF93DF9379
:100B6000EC01BC0182E00E944C02BE0183E00E94C5
:100B70004C02DF91CF910895BC0184E00E944C02A9
:100B8000089581E080934000E0EEF7E0818392E0F9
:100B9000918320E12093010624E02093210620E2A6
:100BA000209382068583958308950E94C1050E9443
:100BB00087020E94EB040E947C070E94C5020E94EB
:100BC000C90A0E94BF0A88EB91E08093F6259093B2
:100BD000F72568EB71E085E290E20E94430185E22F
:100BE00090E20E94B80168EB71E080E090E20E9420
:100BF000430180E090E20E94B80184E594E101970E
:100C0000F1F700C00000E7E8F5E2818D808F10E089
:100C10000E94AD080E949A0AEC0181E0810F123017
:100C2000A0F0BE0185E290E20E94430185E290E2DD
:100C30000E94B801BE0180E090E20E94430180E082
:100C400090E20E94B80110E001C0182F0E94A40A8F
:100C5000813051F018F0823069F012C0C091042048
:100C6000D091052002E00FC0C0912920D0912A2008
:100C700001E009C0C0912920D0912A2000E003C0E2
:100C800003E0C0E0D0E00E94A70AA0E0B0E0BC0111
:100C9000CD01052E5AE0660F771F881F991F5A95C0
:100CA000D1F7502D24E630E040E050E00E94210CC6
:100CB000B90180E00E944C02802F0E94AC0ACE0154
:100CC0000E949F0A0E94F6070E946B020E94B404D1
:100CD0009FCFCF93DF93DC01EB018DE38883898382
:100CE000FB01339680E28A8303C01196808331969C
:100CF0008C918111FACF80E280838DE3818382839E
:100D00001382DF91CF9108958091880685FF26C0D8
:100D100080914A2080FD22C0816080934A20A7E80C
:100D2000B5E25896EC91589781E08E0F87705996EE
:100D30009C91891304C09F5F97709093A025F0E069
:100D40009F01220F331FE20FF31FE957FA4D93E083
:100D500090831182128280939F250BC08091880618
:100D600085FD07C080914A2080FF03C08E7F80935D
:100D70004A208091A80681FF26C080914A2081FDEB
:100D800022C0826080934A20A7E8B5E25896EC9191
:100D9000589781E08E0F877059969C91891304C0F3
:100DA0009F5F97709093A025F0E09F01220F331F63
:100DB000E20FF31FE957FA4D91E0908311821282FE
:100DC00080939F250BC08091A80681FD07C080916C
:100DD0004A2081FF03C08D7F80934A208091A8061E
:100DE00082FF26C080914A2082FD22C084608093C9
:100DF0004A20A7E8B5E25896EC91589781E08E0F0B
:100E0000877059969C91891304C09F5F9770909347
:100E1000A025F0E09F01220F331FE20FF31FE957D7
:100E2000FA4D92E090831182128280939F250BC02D
:100E30008091A80682FD07C080914A2082FF03C0EE
:100E40008B7F80934A208091880682FF26C0809104
:100E50004A2083FD22C0886080934A20A7E8B5E23B
:100E60005896EC91589781E08E0F877059969C9117
:100E7000891304C09F5F97709093A025F0E09F01B5
:100E8000220F331FE20FF31FE957FA4D93E09083CF
:100E90001182128280939F250BC08091880682FD6B
:100EA00007C080914A2083FF03C0877F80934A2038
:100EB0000E94870B9C01892BF1F0A7E8B5E25896B8
:100EC000EC91589791E09E0F977059968C919813DA
:100ED00004C08F5F87708093A025F0E0AF01440FBE
:100EE000551FE40FF51FE957FA4D84E080832183F5
:100EF000328390939F250895CF93DF93C4EBD5E27F
:100F000080EFDE011D928A95E9F78AE0EBE4F0E2DA
:100F1000DE0101900D928A95E1F78AE0EEEBF5E2B1
:100F2000DF01982F1D929A95E9F796E0EFE5F0E240
:100F3000A8ECB5E201900D929A95E1F7EEECF5E29E
:100F40009EE0DF011D929A95E9F793E098A799A793
:100F500021E030E02AA73BA79AE0E3E7F0E2A0EE29
:100F6000B5E201900D929A95E1F7EAEEF5E2DF0124
:100F70001D928A95E9F781E08093F4258093F52509
:100F800099E0E7E8F0E2A8EFB5E201900D929A95BA
:100F9000E1F7E1E0F6E29BE0DF011D929A95E9F7C7
:100FA00080930D269BE0EBE9F0E2A0E1B6E2019030
:100FB0000D929A95E1F7EBE1F6E299E0DF011D92DF
:100FC0009A95E9F7809324268093252682E390E082
:100FD000809326269093272684E08093A226C093B0
:100FE000A125D093A225DF91CF9108950F931F9350
:100FF000CF93DF93CDB7DEB7E197CDBFDEBF0E94C1
:10100000B5038E010F5F1F4FB8018091A12590910C
:10101000A2250E946906F80101900020E9F73197A6
:10102000E01BF10BCF01880F991F880F991FE80F64
:10103000F91F60E870E06E1B7F0B76956795A8013D
:1010400080E00E94550411E07DC04091A12550919F
:10105000A225FA01E351FF4F2081210F2150822F59
:1010600090E0FC01EE0FFF1FE80FF91FEE0FFF1FCE
:10107000EE0FFF1FEE0FFF1FE40FF51F749688E1C0
:10108000DE015A9601900D928A95E1F7FA01E4513A
:10109000FF4F8081281308C03396608161116FE48F
:1010A0004EE3812F0E942704AE01465E5F4F68E049
:1010B000812F0E9455048FA5823089F018F4813069
:1010C00031F03FC0833091F08430A9F13AC048A993
:1010D00059A92AE067E5812F0E946B0432C048A914
:1010E00059A967E5812F0E9455042BC048A959A929
:1010F0002AE067E5812F0E946B0488A999A98130B5
:10110000910559F018F0029779F01BC04BE952E2B3
:1011100067E5812F0E94550414C04FE952E267E54C
:10112000812F0E9455040DC043EA52E267E5812FEA
:101130000E94550406C047EA52E267E5812F0E94EB
:1011400055041F5F143008F480CFE196CDBFDEBF99
:10115000DF91CF911F910F9108950F931F93CF931C
:10116000DF930E9484066091A1257091A225FB0166
:10117000E451FF4F408150E0E7E8F5E2918D808D2A
:10118000981304C080E030E090E011C0E92FF0E057
:101190009F01220F331FE20FF31FE957FA4D8081A1
:1011A000318122819F5F97709093A025922F82308A
:1011B00009F459C030F4882309F4B7C1813041F0F3
:1011C000B4C1833009F4AAC0843009F41FC1ADC191
:1011D0008091A1259091A225FC01E151FF4F208132
:1011E000222389F1FA01EE0FFF1FE40FF51FEE0F26
:1011F000FF1FEE0FFF1FEE0FFF1FE60FF71F81A56A
:10120000813009F092C1CA01880F991FFC01E40FD7
:10121000F51FEE0FFF1FEE0FFF1FEE0FFF1FE60F74
:10122000F71F22A533A5480F591F440F551F440F20
:10123000551F440F551FFB01E40FF51FC90101960F
:1012400082A793A772C1FC01E451FF4F20812223A2
:1012500009F46BC12150208331963081231708F0A7
:1012600064C1208362C18091A1259091A225FC01D7
:10127000E151FF4F2081222389F1FA01EE0FFF1F78
:10128000E40FF51FEE0FFF1FEE0FFF1FEE0FFF1F06
:10129000E60FF71F81A5813009F047C1CA01880F09
:1012A000991FFC01E40FF51FEE0FFF1FEE0FFF1F4C
:1012B000EE0FFF1FE60FF71F22A533A5480F591F9A
:1012C000440F551F440F551F440F551FFB01E40FDA
:1012D000F51FC901019782A793A727C1FC01E4511B
:1012E000FF4F2081622F70E06F5F7F4F3296408109
:1012F00050E0641775070CF018C12F5F32972083F8
:10130000622F70E03196408150E04D5F5F4F64176F
:1013100075070CF40AC12250208307C18091A125D2
:101320009091A225FC01E151FF4F2081222311F071
:101330001082FBC0FA01EE0FFF1FE40FF51FEE0F46
:10134000FF1FEE0FFF1FEE0FFF1FE60FF71F20A579
:10135000223051F02330A1F1213009F0E6C0FC0128
:10136000E151FF4F2083E1C0FA01EE0FFF1FE40FB0
:10137000F51FEE0FFF1FEE0FFF1FEE0FFF1FE60F13
:10138000F71F82A593A5892B09F4CFC0CA01880F46
:10139000991F480F591F440F551F440F551F440FE5
:1013A000551F465D5F4F640F751F6093A1257093B5
:1013B000A225FB01E451FF4F108231961082B5C087
:1013C000FA01EE0FFF1FE40FF51FEE0FFF1FEE0FE8
:1013D000FF1FEE0FFF1FE60FF71F82A593A50196D3
:1013E00082A793A7039708F4A0C0CA01880F991F8A
:1013F000480F591F440F551F440F551F440F551FC9
:10140000FB01E40FF51F12A613A68FC0E091A125E2
:10141000F091A225DF01A151BF4F8C91882309F4DF
:1014200051C0FA01EE0FFF1FE40FF51FEE0FFF1F73
:10143000EE0FFF1FEE0FFF1FE60FF71F81A5813094
:1014400009F073C0FA01EE0FFF1FE40FF51FEE0F56
:10145000FF1FEE0FFF1FEE0FFF1FE60FF71FA2A5E6
:10146000B3A5E32FF92F8F010F2E000C220B330BA6
:101470000A0F1B1F211D311D33239CF0CA01880F49
:10148000991F480F591F440F551F440F551F440FF4
:10149000551FEB01C40FD51FEA0FFB1FEAA7FBA7DF
:1014A00044C0CA01880F991F480F591F440F551F88
:1014B000440F551F440F551FFB01E40FF51F12A6E3
:1014C00013A633C0DF01A451BF4F8C91432F592F76
:1014D000480F511D552314F41C9211C0DF01A25175
:1014E000BF4F8C91282F30E04217530724F01297FA
:1014F00081508C9304C0DF01A451BF4F4C93DF0196
:10150000A451BF4F2C9111968C91281718F4FD010E
:1015100020830BC0422F50E090E0039648175907F4
:1015200024F0E351FF4F22502083DF91CF911F9190
:101530000F9108958091F6259091F7250895809355
:101540000E2690930F2608958091DE2508958091B0
:10155000262690912726089580FF04C098E0909356
:10156000250603C098E09093260681FF04C082E020
:1015700080932506089582E0809326060895E0E290
:10158000F6E088E0818382E0818383E00E94AC0AF8
:101590000895F894E0E8F6E082E0828388E08283B0
:1015A00010929106109293068AE0828781E08187EB
:1015B000A0E0BAE01C9211961C92119713961C920F
:1015C00013978FE590E096968D939C9397979096BE
:1015D0001D921C929197A0EAB0E012968C911297FE
:1015E000816012968C93808581FF02C092E001C0D9
:1015F00090E083FB882780F9892B8093AB25789432
:1016000008951F920F920FB60F9211240BB60F92EE
:101610002F933F934F938F939F93AF93BF93EF93EA
:10162000FF93409188068091AB2590E0880F991F29
:10163000880F991F8F708093AB2541FF03C082E014
:1016400090E002C080E090E043FB222720F930E0E8
:10165000282B392B8091AB25282B2093AB25E091AB
:10166000AB258E2F90E0FC013197EE30F105A8F408
:101670008827E250FF4F8F4F0C94620CE0E0FAE0B5
:1016800080A191A1019780A391A307C0E0E0FAE0B7
:1016900080A191A1019680A391A3FF91EF91BF91A9
:1016A000AF919F918F914F913F912F910F900BBED2
:1016B0000F900FBE0F901F9018958091200A909167
:1016C000210A2091A9253091AA25AC01421B530B78
:1016D0009A018093A9259093AA258091A72590919E
:1016E000A825280F391FC90133230CF403969595BB
:1016F000879595958795AC01440F551F440F551F4D
:10170000241B350B2093A7253093A82508950E940C
:101710005D0B9695982F882797958795092E000C35
:10172000AA0BBB0B4091A3255091A4256091A52540
:101730007091A625840F951FA61FB71F8093A32520
:101740009093A425A093A525B093A6251816190655
:101750001A061B0664F480549109A109B10980930B
:10176000A3259093A425A093A525B093A6258091A9
:10177000A3259091A425A091A525B091A625BB23D2
:1017800064F4805C9F4FAF4FBF4F8093A32590932D
:10179000A425A093A525B093A6258091A32590917B
:1017A000A425A091A525B091A625813D27E092070B
:1017B000A105B10574F5893E23E09207A105B105A5
:1017C0005CF58D3221E09207A105B10544F5823028
:1017D0009105A105B10534F5803328EF92072FEF6D
:1017E000A207B20714F188312CEF92072FEFA2075E
:1017F000B207F4F0843D2EEF92072FEFA207B20755
:10180000D4F08F3F9F4FAF4FBF4FC4F48FEF9FEF88
:10181000089584EF91E0089582E390E0089585E0D3
:1018200090E0089581E090E008958CE09EEF0895A7
:101830008EEC9FEF08958BEF9FEF089580E090E08E
:101840000895A1E21A2EAA1BBB1BFD010DC0AA1F01
:10185000BB1FEE1FFF1FA217B307E407F50720F019
:10186000A21BB30BE40BF50B661F771F881F991F94
:101870001A9469F760957095809590959B01AC01DD
:10188000BD01CF010895052E97FB1EF400940E9420
:101890005A0C57FD07D00E94210C07FC03D04EF4D0
:1018A0000C945A0C50954095309521953F4F4F4FD1
:1018B0005F4F089590958095709561957F4F8F4FFC
:1018C0009F4F0895EE0FFF1F881F8BBF0790F69163
:1018D000E02D1994A29FB001B39FC001A39F700D8A
:1018E000811D1124911DB29F700D811D1124911D28
:1018F00008954532510520F4423010F00C94840CC8
:10190000FB011082CB010895BB27FB015527AA27B5
:10191000880F991FAA1FA41710F0A41B839550517C
:10192000B9F7A05DAA3308F0A95DA193009779F7F4
:10193000B111B1931192CB010C949E0CDC01FC010E
:10194000672F71917723E1F7329704C07C916D93F3
:1019500070836291AE17BF07C8F30895F894FFCF64
:10196000010100000000000000000000000000C0B5
:101970003FCDCC4C3E00000000AB22B2225305AE5E
:1019800005BC059F050001000000000000000000EC
:101990000000000000409A99993E00000000B92222
:1019A000C0227405A905000095050F4D61696E20E0
:1019B0004D656E750000000000000000000000533F
:1019C0006861706500000000000000000000000079
:1019D00000000054617267204672657100000000CB
:1019E0000000000000000041637420467265710031
:1019F00000000000000000000000004D61726B2D2F
:101A000053706163650000000000000000000000EA
:101A100000100B080807070606050505050505045F
:101A2000000000000000005F000000070007001435
:101A30007F147F14242A7F2A1223130864623649F4
:101A40005522500005030000001C224100004122E5
:101A50001C0014083E081408083E08080050300016
:101A60000008080808080060600000201008040250
:101A70003E5149453E00427F400042615149462166
:101A800041454B311814127F1027454545393C4AD2
:101A90004949300171090503364949493606494922
:101AA000291E003636000000563600000814224178
:101AB00000141414141400412214080201510906E0
:101AC000324979413E7E1111117E7F494949363EA6
:101AD000414141227F4141221C7F494949417F09BF
:101AE0000909013E4149497A7F0808087F00417F82
:101AF00041002040413F017F081422417F40404087
:101B0000407F020C027F7F0408107F3E4141413E2E
:101B10007F090909063E4151215E7F091929464680
:101B20004949493101017F01013F4040403F1F20A9
:101B300040201F7F2018207F63140814630708705B
:101B400008076151494543007F41410002040810E4
:101B5000200041417F0004020102048080808080D7
:101B6000000307000020545454787F484444383818
:101B700044444420384444487F3854545418087E20
:101B80000901020C5252523E7F0804047800447D41
:101B900040002040443D007F1028440000417F4029
:101BA000007C0418047C7C080404783844444438DD
:101BB0007C14141408081414187C7C0804040848C5
:101BC00054545420043F4440203C4040207C1C207E
:101BD00040201C3C4030403C44281028440C5050CD
:101BE000503C4464544C44000836410000007F00DF
:101BF000000041360800080408100853696E0054BC
:101C000072690050574D002D2D3E00C7220BA000D9
:101C10000208F3220B0F00D2001F230BFA00F00A78
:101C20004B230B1900FA0000009B006400AB00C8B6
:101C300000C0002C01DA009001FC00F4012B0158D7
:101C4000027101BC02DE012003AA028403A104E8A0
:101C500003CD1000000E0064000F00C80011002C1E
:101C600001140090011700F4011B0058022100BC70
:101C7000022C0020033E0084036C00E80382010074
:101C800000070164002201C80043012C016D01908E
:101C900001A301F401EC0158025502BC02F5022037
:101CA000030C0484036906E803F30E0000170064C4
:101CB000001A00C8001D002C01210090012600F42C
:101CC000012C0058023600BC02450020035F00844E
:081CD000039700E6036A01001E
:00000001FF
